{
  "_format": "hh-sol-artifact-1",
  "contractName": "NFT_V1",
  "sourceName": "contracts/NFT_V1.sol",
  "abi": [
    {
      "inputs": [],
      "stateMutability": "nonpayable",
      "type": "constructor"
    },
    {
      "anonymous": false,
      "inputs": [
        {
          "indexed": true,
          "internalType": "address",
          "name": "owner",
          "type": "address"
        },
        {
          "indexed": true,
          "internalType": "address",
          "name": "approved",
          "type": "address"
        },
        {
          "indexed": true,
          "internalType": "uint256",
          "name": "tokenId",
          "type": "uint256"
        }
      ],
      "name": "Approval",
      "type": "event"
    },
    {
      "anonymous": false,
      "inputs": [
        {
          "indexed": true,
          "internalType": "address",
          "name": "owner",
          "type": "address"
        },
        {
          "indexed": true,
          "internalType": "address",
          "name": "operator",
          "type": "address"
        },
        {
          "indexed": false,
          "internalType": "bool",
          "name": "approved",
          "type": "bool"
        }
      ],
      "name": "ApprovalForAll",
      "type": "event"
    },
    {
      "anonymous": false,
      "inputs": [
        {
          "indexed": false,
          "internalType": "address",
          "name": "",
          "type": "address"
        }
      ],
      "name": "MarketplaceAddress",
      "type": "event"
    },
    {
      "anonymous": false,
      "inputs": [
        {
          "indexed": true,
          "internalType": "address",
          "name": "previousOwner",
          "type": "address"
        },
        {
          "indexed": true,
          "internalType": "address",
          "name": "newOwner",
          "type": "address"
        }
      ],
      "name": "OwnershipTransferred",
      "type": "event"
    },
    {
      "anonymous": false,
      "inputs": [
        {
          "indexed": true,
          "internalType": "address",
          "name": "from",
          "type": "address"
        },
        {
          "indexed": true,
          "internalType": "address",
          "name": "to",
          "type": "address"
        },
        {
          "indexed": true,
          "internalType": "uint256",
          "name": "tokenId",
          "type": "uint256"
        }
      ],
      "name": "Transfer",
      "type": "event"
    },
    {
      "inputs": [
        {
          "internalType": "address",
          "name": "to",
          "type": "address"
        },
        {
          "internalType": "uint256",
          "name": "tokenId",
          "type": "uint256"
        }
      ],
      "name": "approve",
      "outputs": [],
      "stateMutability": "nonpayable",
      "type": "function"
    },
    {
      "inputs": [
        {
          "internalType": "address",
          "name": "owner",
          "type": "address"
        }
      ],
      "name": "balanceOf",
      "outputs": [
        {
          "internalType": "uint256",
          "name": "",
          "type": "uint256"
        }
      ],
      "stateMutability": "view",
      "type": "function"
    },
    {
      "inputs": [
        {
          "internalType": "string",
          "name": "_tokenURI",
          "type": "string"
        }
      ],
      "name": "createToken",
      "outputs": [
        {
          "internalType": "uint256",
          "name": "",
          "type": "uint256"
        }
      ],
      "stateMutability": "nonpayable",
      "type": "function"
    },
    {
      "inputs": [
        {
          "internalType": "uint256",
          "name": "tokenId",
          "type": "uint256"
        }
      ],
      "name": "getApproved",
      "outputs": [
        {
          "internalType": "address",
          "name": "",
          "type": "address"
        }
      ],
      "stateMutability": "view",
      "type": "function"
    },
    {
      "inputs": [],
      "name": "initialize",
      "outputs": [],
      "stateMutability": "nonpayable",
      "type": "function"
    },
    {
      "inputs": [
        {
          "internalType": "address",
          "name": "owner",
          "type": "address"
        },
        {
          "internalType": "address",
          "name": "operator",
          "type": "address"
        }
      ],
      "name": "isApprovedForAll",
      "outputs": [
        {
          "internalType": "bool",
          "name": "",
          "type": "bool"
        }
      ],
      "stateMutability": "view",
      "type": "function"
    },
    {
      "inputs": [],
      "name": "name",
      "outputs": [
        {
          "internalType": "string",
          "name": "",
          "type": "string"
        }
      ],
      "stateMutability": "view",
      "type": "function"
    },
    {
      "inputs": [],
      "name": "owner",
      "outputs": [
        {
          "internalType": "address",
          "name": "",
          "type": "address"
        }
      ],
      "stateMutability": "view",
      "type": "function"
    },
    {
      "inputs": [
        {
          "internalType": "uint256",
          "name": "tokenId",
          "type": "uint256"
        }
      ],
      "name": "ownerOf",
      "outputs": [
        {
          "internalType": "address",
          "name": "",
          "type": "address"
        }
      ],
      "stateMutability": "view",
      "type": "function"
    },
    {
      "inputs": [],
      "name": "renounceOwnership",
      "outputs": [],
      "stateMutability": "nonpayable",
      "type": "function"
    },
    {
      "inputs": [
        {
          "internalType": "address",
          "name": "from",
          "type": "address"
        },
        {
          "internalType": "address",
          "name": "to",
          "type": "address"
        },
        {
          "internalType": "uint256",
          "name": "tokenId",
          "type": "uint256"
        }
      ],
      "name": "safeTransferFrom",
      "outputs": [],
      "stateMutability": "nonpayable",
      "type": "function"
    },
    {
      "inputs": [
        {
          "internalType": "address",
          "name": "from",
          "type": "address"
        },
        {
          "internalType": "address",
          "name": "to",
          "type": "address"
        },
        {
          "internalType": "uint256",
          "name": "tokenId",
          "type": "uint256"
        },
        {
          "internalType": "bytes",
          "name": "_data",
          "type": "bytes"
        }
      ],
      "name": "safeTransferFrom",
      "outputs": [],
      "stateMutability": "nonpayable",
      "type": "function"
    },
    {
      "inputs": [
        {
          "internalType": "address",
          "name": "operator",
          "type": "address"
        },
        {
          "internalType": "bool",
          "name": "approved",
          "type": "bool"
        }
      ],
      "name": "setApprovalForAll",
      "outputs": [],
      "stateMutability": "nonpayable",
      "type": "function"
    },
    {
      "inputs": [
        {
          "internalType": "address",
          "name": "marketplaceAddress",
          "type": "address"
        }
      ],
      "name": "setMarketPlaceAddress",
      "outputs": [],
      "stateMutability": "nonpayable",
      "type": "function"
    },
    {
      "inputs": [
        {
          "internalType": "bytes4",
          "name": "interfaceId",
          "type": "bytes4"
        }
      ],
      "name": "supportsInterface",
      "outputs": [
        {
          "internalType": "bool",
          "name": "",
          "type": "bool"
        }
      ],
      "stateMutability": "view",
      "type": "function"
    },
    {
      "inputs": [],
      "name": "symbol",
      "outputs": [
        {
          "internalType": "string",
          "name": "",
          "type": "string"
        }
      ],
      "stateMutability": "view",
      "type": "function"
    },
    {
      "inputs": [
        {
          "internalType": "uint256",
          "name": "tokenId",
          "type": "uint256"
        }
      ],
      "name": "tokenURI",
      "outputs": [
        {
          "internalType": "string",
          "name": "",
          "type": "string"
        }
      ],
      "stateMutability": "view",
      "type": "function"
    },
    {
      "inputs": [
        {
          "internalType": "address",
          "name": "from",
          "type": "address"
        },
        {
          "internalType": "address",
          "name": "to",
          "type": "address"
        },
        {
          "internalType": "uint256",
          "name": "tokenId",
          "type": "uint256"
        }
      ],
      "name": "transferFrom",
      "outputs": [],
      "stateMutability": "nonpayable",
      "type": "function"
    },
    {
      "inputs": [
        {
          "internalType": "address",
          "name": "newOwner",
          "type": "address"
        }
      ],
      "name": "transferOwnership",
      "outputs": [],
      "stateMutability": "nonpayable",
      "type": "function"
    }
  ],
  "bytecode": "0x608060405234801561001057600080fd5b50600054610100900460ff168061002a575060005460ff16155b6100915760405162461bcd60e51b815260206004820152602e60248201527f496e697469616c697a61626c653a20636f6e747261637420697320616c72656160448201526d191e481a5b9a5d1a585b1a5e995960921b606482015260840160405180910390fd5b600054610100900460ff161580156100b3576000805461ffff19166101011790555b80156100c5576000805461ff00191690555b50611d08806100d56000396000f3fe608060405234801561001057600080fd5b50600436106101215760003560e01c8063715018a6116100ad578063b88d4fde11610071578063b88d4fde1461024c578063c87b56dd1461025f578063cc98ef9614610272578063e985e9c514610285578063f2fde38b146102c157600080fd5b8063715018a6146102105780638129fc1c146102185780638da5cb5b1461022057806395d89b4114610231578063a22cb4651461023957600080fd5b806323b872dd116100f457806323b872dd146101a357806342842e0e146101b657806345576f94146101c95780636352211e146101ea57806370a08231146101fd57600080fd5b806301ffc9a71461012657806306fdde031461014e578063081812fc14610163578063095ea7b31461018e575b600080fd5b61013961013436600461193a565b6102d4565b60405190151581526020015b60405180910390f35b610156610326565b6040516101459190611a68565b6101766101713660046119b8565b6103b8565b6040516001600160a01b039091168152602001610145565b6101a161019c366004611911565b610445565b005b6101a16101b1366004611823565b61055b565b6101a16101c4366004611823565b61058c565b6101dc6101d7366004611972565b6105a7565b604051908152602001610145565b6101766101f83660046119b8565b6105ef565b6101dc61020b3660046117d7565b610666565b6101a16106ed565b6101a1610723565b60c9546001600160a01b0316610176565b6101566107e4565b6101a16102473660046118d7565b6107f3565b6101a161025a36600461185e565b610802565b61015661026d3660046119b8565b61083a565b6101a16102803660046117d7565b610845565b6101396102933660046117f1565b6001600160a01b039182166000908152606a6020908152604080832093909416825291909152205460ff1690565b6101a16102cf3660046117d7565b6108c3565b60006001600160e01b031982166380ac58cd60e01b148061030557506001600160e01b03198216635b5e139f60e01b145b8061032057506301ffc9a760e01b6001600160e01b03198316145b92915050565b60606065805461033590611c10565b80601f016020809104026020016040519081016040528092919081815260200182805461036190611c10565b80156103ae5780601f10610383576101008083540402835291602001916103ae565b820191906000526020600020905b81548152906001019060200180831161039157829003601f168201915b5050505050905090565b60006103c38261095b565b6104295760405162461bcd60e51b815260206004820152602c60248201527f4552433732313a20617070726f76656420717565727920666f72206e6f6e657860448201526b34b9ba32b73a103a37b5b2b760a11b60648201526084015b60405180910390fd5b506000908152606960205260409020546001600160a01b031690565b6000610450826105ef565b9050806001600160a01b0316836001600160a01b031614156104be5760405162461bcd60e51b815260206004820152602160248201527f4552433732313a20617070726f76616c20746f2063757272656e74206f776e656044820152603960f91b6064820152608401610420565b336001600160a01b03821614806104da57506104da8133610293565b61054c5760405162461bcd60e51b815260206004820152603860248201527f4552433732313a20617070726f76652063616c6c6572206973206e6f74206f7760448201527f6e6572206e6f7220617070726f76656420666f7220616c6c00000000000000006064820152608401610420565b6105568383610978565b505050565b61056533826109e6565b6105815760405162461bcd60e51b815260040161042090611b50565b610556838383610ad0565b61055683838360405180602001604052806000815250610802565b60006105b760fb80546001019055565b60006105c260fb5490565b90506105ce3382610c70565b6105d88184610da3565b60fc54610320906001600160a01b031660016107f3565b6000818152606760205260408120546001600160a01b0316806103205760405162461bcd60e51b815260206004820152602960248201527f4552433732313a206f776e657220717565727920666f72206e6f6e657869737460448201526832b73a103a37b5b2b760b91b6064820152608401610420565b60006001600160a01b0382166106d15760405162461bcd60e51b815260206004820152602a60248201527f4552433732313a2062616c616e636520717565727920666f7220746865207a65604482015269726f206164647265737360b01b6064820152608401610420565b506001600160a01b031660009081526068602052604090205490565b60c9546001600160a01b031633146107175760405162461bcd60e51b815260040161042090611b1b565b6107216000610e2e565b565b600054610100900460ff168061073c575060005460ff16155b6107585760405162461bcd60e51b815260040161042090611acd565b600054610100900460ff1615801561077a576000805461ffff19166101011790555b6107bf604051806040016040528060068152602001654d4f5753534560d01b815250604051806040016040528060058152602001644d5753534560d81b815250610e80565b6107c7610f07565b6107cf610f76565b80156107e1576000805461ff00191690555b50565b60606066805461033590611c10565b6107fe338383610fdd565b5050565b61080c33836109e6565b6108285760405162461bcd60e51b815260040161042090611b50565b610834848484846110ac565b50505050565b6060610320826110df565b60c9546001600160a01b0316331461086f5760405162461bcd60e51b815260040161042090611b1b565b60fc80546001600160a01b0319166001600160a01b0383169081179091556040519081527ff648a3308e64ae8284427cc1a03fde12e56167b7ccf3ac50df54f06124b6207a9060200160405180910390a150565b60c9546001600160a01b031633146108ed5760405162461bcd60e51b815260040161042090611b1b565b6001600160a01b0381166109525760405162461bcd60e51b815260206004820152602660248201527f4f776e61626c653a206e6577206f776e657220697320746865207a65726f206160448201526564647265737360d01b6064820152608401610420565b6107e181610e2e565b6000908152606760205260409020546001600160a01b0316151590565b600081815260696020526040902080546001600160a01b0319166001600160a01b03841690811790915581906109ad826105ef565b6001600160a01b03167f8c5be1e5ebec7d5bd14f71427d1e84f3dd0314c0f7b2291e5b200ac8c7c3b92560405160405180910390a45050565b60006109f18261095b565b610a525760405162461bcd60e51b815260206004820152602c60248201527f4552433732313a206f70657261746f7220717565727920666f72206e6f6e657860448201526b34b9ba32b73a103a37b5b2b760a11b6064820152608401610420565b6000610a5d836105ef565b9050806001600160a01b0316846001600160a01b03161480610a985750836001600160a01b0316610a8d846103b8565b6001600160a01b0316145b80610ac857506001600160a01b038082166000908152606a602090815260408083209388168352929052205460ff165b949350505050565b826001600160a01b0316610ae3826105ef565b6001600160a01b031614610b4b5760405162461bcd60e51b815260206004820152602960248201527f4552433732313a207472616e73666572206f6620746f6b656e2074686174206960448201526839903737ba1037bbb760b91b6064820152608401610420565b6001600160a01b038216610bad5760405162461bcd60e51b8152602060048201526024808201527f4552433732313a207472616e7366657220746f20746865207a65726f206164646044820152637265737360e01b6064820152608401610420565b610bb8600082610978565b6001600160a01b0383166000908152606860205260408120805460019290610be1908490611bcd565b90915550506001600160a01b0382166000908152606860205260408120805460019290610c0f908490611ba1565b909155505060008181526067602052604080822080546001600160a01b0319166001600160a01b0386811691821790925591518493918716917fddf252ad1be2c89b69c2b068fc378daa952ba7f163c4a11628f55a4df523b3ef91a4505050565b6001600160a01b038216610cc65760405162461bcd60e51b815260206004820181905260248201527f4552433732313a206d696e7420746f20746865207a65726f20616464726573736044820152606401610420565b610ccf8161095b565b15610d1c5760405162461bcd60e51b815260206004820152601c60248201527f4552433732313a20746f6b656e20616c7265616479206d696e746564000000006044820152606401610420565b6001600160a01b0382166000908152606860205260408120805460019290610d45908490611ba1565b909155505060008181526067602052604080822080546001600160a01b0319166001600160a01b03861690811790915590518392907fddf252ad1be2c89b69c2b068fc378daa952ba7f163c4a11628f55a4df523b3ef908290a45050565b610dac8261095b565b610e0f5760405162461bcd60e51b815260206004820152602e60248201527f45524337323155524953746f726167653a2055524920736574206f66206e6f6e60448201526d32bc34b9ba32b73a103a37b5b2b760911b6064820152608401610420565b60008281526097602090815260409091208251610556928401906116ac565b60c980546001600160a01b038381166001600160a01b0319831681179093556040519116919082907f8be0079c531659141344cd1fd0a4f28419497f9722a3daafe3b4186f6b6457e090600090a35050565b600054610100900460ff1680610e99575060005460ff16155b610eb55760405162461bcd60e51b815260040161042090611acd565b600054610100900460ff16158015610ed7576000805461ffff19166101011790555b610edf61124e565b610ee761124e565b610ef183836112b8565b8015610556576000805461ff0019169055505050565b600054610100900460ff1680610f20575060005460ff16155b610f3c5760405162461bcd60e51b815260040161042090611acd565b600054610100900460ff16158015610f5e576000805461ffff19166101011790555b610f6661124e565b610f6e61124e565b6107cf61124e565b600054610100900460ff1680610f8f575060005460ff16155b610fab5760405162461bcd60e51b815260040161042090611acd565b600054610100900460ff16158015610fcd576000805461ffff19166101011790555b610fd561124e565b6107cf61134d565b816001600160a01b0316836001600160a01b0316141561103f5760405162461bcd60e51b815260206004820152601960248201527f4552433732313a20617070726f766520746f2063616c6c6572000000000000006044820152606401610420565b6001600160a01b038381166000818152606a6020908152604080832094871680845294825291829020805460ff191686151590811790915591519182527f17307eab39ab6107e8899845ad3d59bd9653f200f220920489ca2b5937696c31910160405180910390a3505050565b6110b7848484610ad0565b6110c3848484846113ad565b6108345760405162461bcd60e51b815260040161042090611a7b565b60606110ea8261095b565b6111505760405162461bcd60e51b815260206004820152603160248201527f45524337323155524953746f726167653a2055524920717565727920666f72206044820152703737b732bc34b9ba32b73a103a37b5b2b760791b6064820152608401610420565b6000828152609760205260408120805461116990611c10565b80601f016020809104026020016040519081016040528092919081815260200182805461119590611c10565b80156111e25780601f106111b7576101008083540402835291602001916111e2565b820191906000526020600020905b8154815290600101906020018083116111c557829003601f168201915b50505050509050600061120060408051602081019091526000815290565b9050805160001415611213575092915050565b81511561124557808260405160200161122d9291906119fc565b60405160208183030381529060405292505050919050565b610ac8846114ba565b600054610100900460ff1680611267575060005460ff16155b6112835760405162461bcd60e51b815260040161042090611acd565b600054610100900460ff161580156107cf576000805461ffff191661010117905580156107e1576000805461ff001916905550565b600054610100900460ff16806112d1575060005460ff16155b6112ed5760405162461bcd60e51b815260040161042090611acd565b600054610100900460ff1615801561130f576000805461ffff19166101011790555b82516113229060659060208601906116ac565b5081516113369060669060208501906116ac565b508015610556576000805461ff0019169055505050565b600054610100900460ff1680611366575060005460ff16155b6113825760405162461bcd60e51b815260040161042090611acd565b600054610100900460ff161580156113a4576000805461ffff19166101011790555b6107cf33610e2e565b60006001600160a01b0384163b156114af57604051630a85bd0160e11b81526001600160a01b0385169063150b7a02906113f1903390899088908890600401611a2b565b602060405180830381600087803b15801561140b57600080fd5b505af192505050801561143b575060408051601f3d908101601f1916820190925261143891810190611956565b60015b611495573d808015611469576040519150601f19603f3d011682016040523d82523d6000602084013e61146e565b606091505b50805161148d5760405162461bcd60e51b815260040161042090611a7b565b805181602001fd5b6001600160e01b031916630a85bd0160e11b149050610ac8565b506001949350505050565b60606114c58261095b565b6115295760405162461bcd60e51b815260206004820152602f60248201527f4552433732314d657461646174613a2055524920717565727920666f72206e6f60448201526e3732bc34b9ba32b73a103a37b5b2b760891b6064820152608401610420565b600061154060408051602081019091526000815290565b90506000815111611560576040518060200160405280600081525061158b565b8061156a84611592565b60405160200161157b9291906119fc565b6040516020818303038152906040525b9392505050565b6060816115b65750506040805180820190915260018152600360fc1b602082015290565b8160005b81156115e057806115ca81611c4b565b91506115d99050600a83611bb9565b91506115ba565b60008167ffffffffffffffff81111561160957634e487b7160e01b600052604160045260246000fd5b6040519080825280601f01601f191660200182016040528015611633576020820181803683370190505b5090505b8415610ac857611648600183611bcd565b9150611655600a86611c66565b611660906030611ba1565b60f81b81838151811061168357634e487b7160e01b600052603260045260246000fd5b60200101906001600160f81b031916908160001a9053506116a5600a86611bb9565b9450611637565b8280546116b890611c10565b90600052602060002090601f0160209004810192826116da5760008555611720565b82601f106116f357805160ff1916838001178555611720565b82800160010185558215611720579182015b82811115611720578251825591602001919060010190611705565b5061172c929150611730565b5090565b5b8082111561172c5760008155600101611731565b600067ffffffffffffffff8084111561176057611760611ca6565b604051601f8501601f19908116603f0116810190828211818310171561178857611788611ca6565b816040528093508581528686860111156117a157600080fd5b858560208301376000602087830101525050509392505050565b80356001600160a01b03811681146117d257600080fd5b919050565b6000602082840312156117e8578081fd5b61158b826117bb565b60008060408385031215611803578081fd5b61180c836117bb565b915061181a602084016117bb565b90509250929050565b600080600060608486031215611837578081fd5b611840846117bb565b925061184e602085016117bb565b9150604084013590509250925092565b60008060008060808587031215611873578081fd5b61187c856117bb565b935061188a602086016117bb565b925060408501359150606085013567ffffffffffffffff8111156118ac578182fd5b8501601f810187136118bc578182fd5b6118cb87823560208401611745565b91505092959194509250565b600080604083850312156118e9578182fd5b6118f2836117bb565b915060208301358015158114611906578182fd5b809150509250929050565b60008060408385031215611923578182fd5b61192c836117bb565b946020939093013593505050565b60006020828403121561194b578081fd5b813561158b81611cbc565b600060208284031215611967578081fd5b815161158b81611cbc565b600060208284031215611983578081fd5b813567ffffffffffffffff811115611999578182fd5b8201601f810184136119a9578182fd5b610ac884823560208401611745565b6000602082840312156119c9578081fd5b5035919050565b600081518084526119e8816020860160208601611be4565b601f01601f19169290920160200192915050565b60008351611a0e818460208801611be4565b835190830190611a22818360208801611be4565b01949350505050565b6001600160a01b0385811682528416602082015260408101839052608060608201819052600090611a5e908301846119d0565b9695505050505050565b60208152600061158b60208301846119d0565b60208082526032908201527f4552433732313a207472616e7366657220746f206e6f6e20455243373231526560408201527131b2b4bb32b91034b6b83632b6b2b73a32b960711b606082015260800190565b6020808252602e908201527f496e697469616c697a61626c653a20636f6e747261637420697320616c72656160408201526d191e481a5b9a5d1a585b1a5e995960921b606082015260800190565b6020808252818101527f4f776e61626c653a2063616c6c6572206973206e6f7420746865206f776e6572604082015260600190565b60208082526031908201527f4552433732313a207472616e736665722063616c6c6572206973206e6f74206f6040820152701ddb995c881b9bdc88185c1c1c9bdd9959607a1b606082015260800190565b60008219821115611bb457611bb4611c7a565b500190565b600082611bc857611bc8611c90565b500490565b600082821015611bdf57611bdf611c7a565b500390565b60005b83811015611bff578181015183820152602001611be7565b838111156108345750506000910152565b600181811c90821680611c2457607f821691505b60208210811415611c4557634e487b7160e01b600052602260045260246000fd5b50919050565b6000600019821415611c5f57611c5f611c7a565b5060010190565b600082611c7557611c75611c90565b500690565b634e487b7160e01b600052601160045260246000fd5b634e487b7160e01b600052601260045260246000fd5b634e487b7160e01b600052604160045260246000fd5b6001600160e01b0319811681146107e157600080fdfea2646970667358221220f1fb06aabe48dbbf6493c3bb28f5cb076e4139f67e441e5cb16e8b5c9927056164736f6c63430008040033",
  "linkReferences": {},
  "deployedLinkReferences": {}
}