{
  "_format": "hh-sol-artifact-1",
  "contractName": "NFTMarket_V1",
  "sourceName": "contracts/Market_V1.sol",
  "abi": [
    {
      "anonymous": false,
      "inputs": [
        {
          "indexed": false,
          "internalType": "uint256",
          "name": "",
          "type": "uint256"
        }
      ],
      "name": "ListingPriceChanged",
      "type": "event"
    },
    {
      "anonymous": false,
      "inputs": [
        {
          "indexed": true,
          "internalType": "uint256",
          "name": "itemId",
          "type": "uint256"
        },
        {
          "indexed": true,
          "internalType": "address",
          "name": "nftContract",
          "type": "address"
        },
        {
          "indexed": true,
          "internalType": "uint256",
          "name": "tokenId",
          "type": "uint256"
        },
        {
          "indexed": false,
          "internalType": "address",
          "name": "seller",
          "type": "address"
        },
        {
          "indexed": false,
          "internalType": "address",
          "name": "owner",
          "type": "address"
        },
        {
          "indexed": false,
          "internalType": "uint256",
          "name": "price",
          "type": "uint256"
        },
        {
          "indexed": false,
          "internalType": "bool",
          "name": "sold",
          "type": "bool"
        }
      ],
      "name": "MarketItemCreated",
      "type": "event"
    },
    {
      "inputs": [
        {
          "internalType": "uint256",
          "name": "_listingPrice",
          "type": "uint256"
        }
      ],
      "name": "changeListingPrice",
      "outputs": [],
      "stateMutability": "nonpayable",
      "type": "function"
    },
    {
      "inputs": [
        {
          "internalType": "address",
          "name": "nftContract",
          "type": "address"
        },
        {
          "internalType": "uint256",
          "name": "tokenId",
          "type": "uint256"
        },
        {
          "internalType": "uint256",
          "name": "price",
          "type": "uint256"
        }
      ],
      "name": "createMarketItem",
      "outputs": [],
      "stateMutability": "payable",
      "type": "function"
    },
    {
      "inputs": [
        {
          "internalType": "address",
          "name": "nftContract",
          "type": "address"
        },
        {
          "internalType": "uint256",
          "name": "itemId",
          "type": "uint256"
        }
      ],
      "name": "createMarketSale",
      "outputs": [],
      "stateMutability": "payable",
      "type": "function"
    },
    {
      "inputs": [],
      "name": "fetchItemsCreated",
      "outputs": [
        {
          "components": [
            {
              "internalType": "uint256",
              "name": "itemId",
              "type": "uint256"
            },
            {
              "internalType": "address",
              "name": "nftContract",
              "type": "address"
            },
            {
              "internalType": "uint256",
              "name": "tokenId",
              "type": "uint256"
            },
            {
              "internalType": "address payable",
              "name": "seller",
              "type": "address"
            },
            {
              "internalType": "address payable",
              "name": "owner",
              "type": "address"
            },
            {
              "internalType": "uint256",
              "name": "price",
              "type": "uint256"
            },
            {
              "internalType": "bool",
              "name": "sold",
              "type": "bool"
            }
          ],
          "internalType": "struct NFTMarket_V1.MarketItem[]",
          "name": "",
          "type": "tuple[]"
        }
      ],
      "stateMutability": "view",
      "type": "function"
    },
    {
      "inputs": [],
      "name": "fetchMarketItems",
      "outputs": [
        {
          "components": [
            {
              "internalType": "uint256",
              "name": "itemId",
              "type": "uint256"
            },
            {
              "internalType": "address",
              "name": "nftContract",
              "type": "address"
            },
            {
              "internalType": "uint256",
              "name": "tokenId",
              "type": "uint256"
            },
            {
              "internalType": "address payable",
              "name": "seller",
              "type": "address"
            },
            {
              "internalType": "address payable",
              "name": "owner",
              "type": "address"
            },
            {
              "internalType": "uint256",
              "name": "price",
              "type": "uint256"
            },
            {
              "internalType": "bool",
              "name": "sold",
              "type": "bool"
            }
          ],
          "internalType": "struct NFTMarket_V1.MarketItem[]",
          "name": "",
          "type": "tuple[]"
        }
      ],
      "stateMutability": "view",
      "type": "function"
    },
    {
      "inputs": [],
      "name": "fetchMyNFTs",
      "outputs": [
        {
          "components": [
            {
              "internalType": "uint256",
              "name": "itemId",
              "type": "uint256"
            },
            {
              "internalType": "address",
              "name": "nftContract",
              "type": "address"
            },
            {
              "internalType": "uint256",
              "name": "tokenId",
              "type": "uint256"
            },
            {
              "internalType": "address payable",
              "name": "seller",
              "type": "address"
            },
            {
              "internalType": "address payable",
              "name": "owner",
              "type": "address"
            },
            {
              "internalType": "uint256",
              "name": "price",
              "type": "uint256"
            },
            {
              "internalType": "bool",
              "name": "sold",
              "type": "bool"
            }
          ],
          "internalType": "struct NFTMarket_V1.MarketItem[]",
          "name": "",
          "type": "tuple[]"
        }
      ],
      "stateMutability": "view",
      "type": "function"
    },
    {
      "inputs": [
        {
          "internalType": "uint256",
          "name": "Tokenid",
          "type": "uint256"
        }
      ],
      "name": "fetchTokeByID",
      "outputs": [
        {
          "internalType": "uint256",
          "name": "itemId",
          "type": "uint256"
        },
        {
          "internalType": "address",
          "name": "nftContract",
          "type": "address"
        },
        {
          "internalType": "address payable",
          "name": "seller",
          "type": "address"
        },
        {
          "internalType": "uint256",
          "name": "price",
          "type": "uint256"
        },
        {
          "internalType": "bool",
          "name": "sold",
          "type": "bool"
        },
        {
          "internalType": "address",
          "name": "owner",
          "type": "address"
        }
      ],
      "stateMutability": "view",
      "type": "function"
    },
    {
      "inputs": [],
      "name": "getListingPrice",
      "outputs": [
        {
          "internalType": "uint256",
          "name": "",
          "type": "uint256"
        }
      ],
      "stateMutability": "view",
      "type": "function"
    },
    {
      "inputs": [
        {
          "internalType": "address",
          "name": "nftContract",
          "type": "address"
        },
        {
          "internalType": "uint256",
          "name": "tokenId",
          "type": "uint256"
        }
      ],
      "name": "getTokenData",
      "outputs": [
        {
          "internalType": "string",
          "name": "",
          "type": "string"
        }
      ],
      "stateMutability": "view",
      "type": "function"
    },
    {
      "inputs": [],
      "name": "initialize",
      "outputs": [],
      "stateMutability": "nonpayable",
      "type": "function"
    },
    {
      "inputs": [
        {
          "internalType": "address",
          "name": "nftContract",
          "type": "address"
        },
        {
          "internalType": "uint256",
          "name": "itemId",
          "type": "uint256"
        },
        {
          "internalType": "address",
          "name": "to",
          "type": "address"
        }
      ],
      "name": "transferMarketSale",
      "outputs": [],
      "stateMutability": "nonpayable",
      "type": "function"
    }
  ],
  "bytecode": "0x608060405234801561001057600080fd5b5061147a806100206000396000f3fe60806040526004361061009c5760003560e01c80638129fc1c116100645780638129fc1c146101f15780639f292d7614610206578063ba0f1d9c14610233578063c23b139e14610253578063d00df9bd14610266578063f064c32e1461028657600080fd5b80630f08efe0146100a157806312e85585146100cc578063202e3740146100ea5780634e21f5aa146100ff57806358eb2df5146101dc575b600080fd5b3480156100ad57600080fd5b506100b661029b565b6040516100c39190611252565b60405180910390f35b3480156100d857600080fd5b506036546040519081526020016100c3565b3480156100f657600080fd5b506100b6610444565b34801561010b57600080fd5b5061019e61011a36600461123a565b600090815260386020908152604091829020825160e081018452815480825260018301546001600160a01b039081169483018590526002840154958301959095526003830154851660608301819052600484015490951660808301819052600584015460a0840181905260069094015460ff16151560c09093018390529095939493565b604080519687526001600160a01b039586166020880152938516938601939093526060850191909152151560808401521660a082015260c0016100c3565b6101ef6101ea36600461115f565b61062b565b005b3480156101fd57600080fd5b506101ef610899565b34801561021257600080fd5b506102266102213660046110fb565b61092a565b6040516100c391906112e6565b34801561023f57600080fd5b506101ef61024e36600461123a565b6109b0565b6101ef6102613660046110fb565b610a45565b34801561027257600080fd5b506101ef610281366004611124565b610c30565b34801561029257600080fd5b506100b6610dda565b606060006102a860335490565b905060006102b560345490565b6033546102c291906113b6565b90506000808267ffffffffffffffff8111156102ee57634e487b7160e01b600052604160045260246000fd5b60405190808252806020026020018201604052801561032757816020015b6103146110a3565b81526020019060019003908161030c5790505b50905060005b8481101561043b57600060388161034584600161139e565b81526020810191909152604001600020600401546001600160a01b0316141561042957600061037582600161139e565b600081815260386020908152604091829020825160e0810184528154815260018201546001600160a01b039081169382019390935260028201549381019390935260038101548216606084015260048101549091166080830152600581015460a0830152600681015460ff16151560c083015285519293509185908790811061040e57634e487b7160e01b600052603260045260246000fd5b602090810291909101015261042460018661139e565b945050505b80610433816113fd565b91505061032d565b50949350505050565b6060600061045160335490565b905060008060005b838110156104b457336038600061047184600161139e565b81526020810191909152604001600020600401546001600160a01b031614156104a25761049f60018461139e565b92505b806104ac816113fd565b915050610459565b5060008267ffffffffffffffff8111156104de57634e487b7160e01b600052604160045260246000fd5b60405190808252806020026020018201604052801561051757816020015b6105046110a3565b8152602001906001900390816104fc5790505b50905060005b8481101561043b57336038600061053584600161139e565b81526020810191909152604001600020600401546001600160a01b0316141561061957600061056582600161139e565b600081815260386020908152604091829020825160e0810184528154815260018201546001600160a01b039081169382019390935260028201549381019390935260038101548216606084015260048101549091166080830152600581015460a0830152600681015460ff16151560c08301528551929350918590879081106105fe57634e487b7160e01b600052603260045260246000fd5b602090810291909101015261061460018661139e565b945050505b80610623816113fd565b91505061051d565b600260015414156106575760405162461bcd60e51b815260040161064e90611367565b60405180910390fd5b6002600155806106a95760405162461bcd60e51b815260206004820152601c60248201527f5072696365206d757374206265206174206c6561737420312077656900000000604482015260640161064e565b60365434146107065760405162461bcd60e51b8152602060048201526024808201527f5072696365206d75737420626520657175616c20746f206c697374696e6720706044820152637269636560e01b606482015260840161064e565b610714603380546001019055565b600061071f60335490565b6040805160e0810182528281526001600160a01b0387811660208084018281528486018a815233606087018181526080880182815260a089018d8152600060c08b018181528d825260389098528b902099518a55945160018a018054918a166001600160a01b0319928316179055935160028a0155905160038901805491891691851691909117905551600480890180549290981691909316179095559051600586015590516006909401805494151560ff199095169490941790935592516323b872dd60e01b81529182015230602482015260448101869052919250906323b872dd90606401600060405180830381600087803b15801561082057600080fd5b505af1158015610834573d6000803e3d6000fd5b505060408051338152600060208201819052818301879052606082015290518693506001600160a01b038816925084917f045dfa01dcba2b36aba1d3dc4a874f4b0c5d2fbeb8d2c4b34a7d88c8d8f929d1919081900360800190a45050600180555050565b600054610100900460ff16806108b2575060005460ff16155b6108ce5760405162461bcd60e51b815260040161064e90611319565b600054610100900460ff161580156108f0576000805461ffff19166101011790555b6108f8610fc1565b603580546001600160a01b031916331790556658d15e176280006036558015610927576000805461ff00191690555b50565b60405163c87b56dd60e01b8152600481018290526060906001600160a01b0384169063c87b56dd9060240160006040518083038186803b15801561096d57600080fd5b505afa158015610981573d6000803e3d6000fd5b505050506040513d6000823e601f3d908101601f191682016040526109a99190810190611191565b9392505050565b6035546001600160a01b03163314610a0a5760405162461bcd60e51b815260206004820152601f60248201527f6f6e6c79206f776e65722063616e206368616e67652074686520707269636500604482015260640161064e565b60368190556040518181527fdf95b1606dca061e8c783bba00d6266f085f197df1b7940f175e96ef07b4f1039060200160405180910390a150565b60026001541415610a685760405162461bcd60e51b815260040161064e90611367565b6002600181905560008281526038602052604090206005810154910154348214610afc576040805162461bcd60e51b81526020600482015260248101919091527f506c65617365207375626d6974207468652061736b696e67207072696365206960448201527f6e206f7264657220746f20636f6d706c65746520746865207075726368617365606482015260840161064e565b6000838152603860205260408082206003015490516001600160a01b03909116913480156108fc02929091818181858888f19350505050158015610b44573d6000803e3d6000fd5b506040516323b872dd60e01b8152306004820152336024820152604481018290526001600160a01b038516906323b872dd90606401600060405180830381600087803b158015610b9357600080fd5b505af1158015610ba7573d6000803e3d6000fd5b50505060008481526038602052604090206004810180546001600160a01b03191633179055600601805460ff1916600117905550610be9603480546001019055565b6035546036546040516001600160a01b039092169181156108fc0291906000818181858888f19350505050158015610c25573d6000803e3d6000fd5b505060018055505050565b60026001541415610c535760405162461bcd60e51b815260040161064e90611367565b60026001818155600084815260386020908152604091829020825160e08101845281548152938101546001600160a01b03908116928501929092529384015491830191909152600383015481166060830181905260048401549091166080830152600583015460a083015260069092015460ff16151560c0820152903314610d275760405162461bcd60e51b815260206004820152602160248201527f596f752063616e206f6e6c792074726e617366657220796f757220746f6b656e6044820152607360f81b606482015260840161064e565b600083815260386020526040908190206002015490516323b872dd60e01b81523060048201526001600160a01b038481166024830152604482018390528616906323b872dd90606401600060405180830381600087803b158015610d8a57600080fd5b505af1158015610d9e573d6000803e3d6000fd5b505050600085815260386020526040902060040180546001600160a01b0319166001600160a01b03861617905550603480546001019055610c25565b60606000610de760335490565b905060008060005b83811015610e4a573360386000610e0784600161139e565b81526020810191909152604001600020600301546001600160a01b03161415610e3857610e3560018461139e565b92505b80610e42816113fd565b915050610def565b5060008267ffffffffffffffff811115610e7457634e487b7160e01b600052604160045260246000fd5b604051908082528060200260200182016040528015610ead57816020015b610e9a6110a3565b815260200190600190039081610e925790505b50905060005b8481101561043b573360386000610ecb84600161139e565b81526020810191909152604001600020600301546001600160a01b03161415610faf576000610efb82600161139e565b600081815260386020908152604091829020825160e0810184528154815260018201546001600160a01b039081169382019390935260028201549381019390935260038101548216606084015260048101549091166080830152600581015460a0830152600681015460ff16151560c0830152855192935091859087908110610f9457634e487b7160e01b600052603260045260246000fd5b6020908102919091010152610faa60018661139e565b945050505b80610fb9816113fd565b915050610eb3565b600054610100900460ff1680610fda575060005460ff16155b610ff65760405162461bcd60e51b815260040161064e90611319565b600054610100900460ff16158015611018576000805461ffff19166101011790555b611020611034565b8015610927576000805461ff001916905550565b600054610100900460ff168061104d575060005460ff16155b6110695760405162461bcd60e51b815260040161064e90611319565b600054610100900460ff1615801561108b576000805461ffff19166101011790555b600180558015610927576000805461ff001916905550565b6040805160e081018252600080825260208201819052918101829052606081018290526080810182905260a0810182905260c081019190915290565b80356001600160a01b03811681146110f657600080fd5b919050565b6000806040838503121561110d578182fd5b611116836110df565b946020939093013593505050565b600080600060608486031215611138578081fd5b611141846110df565b925060208401359150611156604085016110df565b90509250925092565b600080600060608486031215611173578283fd5b61117c846110df565b95602085013595506040909401359392505050565b6000602082840312156111a2578081fd5b815167ffffffffffffffff808211156111b9578283fd5b818401915084601f8301126111cc578283fd5b8151818111156111de576111de61142e565b604051601f8201601f19908116603f011681019083821181831017156112065761120661142e565b8160405282815287602084870101111561121e578586fd5b61122f8360208301602088016113cd565b979650505050505050565b60006020828403121561124b578081fd5b5035919050565b602080825282518282018190526000919060409081850190868401855b828110156112d957815180518552868101516001600160a01b039081168887015286820151878701526060808301518216908701526080808301519091169086015260a0808201519086015260c09081015115159085015260e0909301929085019060010161126f565b5091979650505050505050565b60208152600082518060208401526113058160408501602087016113cd565b601f01601f19169190910160400192915050565b6020808252602e908201527f496e697469616c697a61626c653a20636f6e747261637420697320616c72656160408201526d191e481a5b9a5d1a585b1a5e995960921b606082015260800190565b6020808252601f908201527f5265656e7472616e637947756172643a207265656e7472616e742063616c6c00604082015260600190565b600082198211156113b1576113b1611418565b500190565b6000828210156113c8576113c8611418565b500390565b60005b838110156113e85781810151838201526020016113d0565b838111156113f7576000848401525b50505050565b600060001982141561141157611411611418565b5060010190565b634e487b7160e01b600052601160045260246000fd5b634e487b7160e01b600052604160045260246000fdfea2646970667358221220d794022acaefe69c922256baedc6fef2405a2702f62a84f488231f5369e8c2bc64736f6c63430008040033",
  "linkReferences": {},
  "deployedLinkReferences": {}
}